:020000041000EA
:1000000000B5324B212058609868022188439860DF
:10001000D860186158612E4B002199600421596104
:100020000121F02299502B49196001219960352056
:1000300000F044F80222904214D00621196600F024
:1000400034F8196E01211966002018661A6600F04E
:100050002CF8196E196E196E052000F02FF8012189
:100060000842F9D1002199601B49196000215960AB
:100070001A491B48016001219960EB211966A021F2
:10008000196600F012F800219960164914480160C1
:100090000121996001BC002800D000471248134993
:1000A000086003C880F30888084703B5996A0420EC
:1000B0000142FBD001200142F8D103BD02B5186610
:1000C0001866FFF7F2FF186E186E02BD00000240BE
:1000D000000000180000070000035F00212200005C
:1000E000F4000018222000A00001001008ED00E03C
:1000F000000000000000000000000000070B8FD58A
:10010000980E0020790E001079210010350E001095
:1001100000000000000000000000000000000000DF
:10012000000000000000000000000000010D0010B1
:100130000000000000000000A10C0010451100109C
:10014000710D0010710D0010710D0010710D001077
:10015000710D0010710D0010710D0010710D001067
:10016000710D0010710D0010710D0010710D001057
:10017000710D0010710D0010710D0010710D001047
:10018000710D0010710D0010710D0010710D001037
:10019000710D0010710D0010710D0010710D001027
:0801A000710D0010710D00103B
:1001A80002B4714649084900095C49008E4402BC02
:1001B8007047C04603B47146490840004900095ECB
:1001C80049008E4403BC7047002934D00123002223
:1001D80010B488422CD301242407A14204D28142BE
:1001E80002D209011B01F8E7E400A14204D28142CE
:1001F80002D249005B00F8E7884201D3401A1A434B
:100208004C08A04202D3001B5C0822438C08A04281
:1002180002D3001B9C082243CC08A04202D3001B37
:10022800DC082243002803D01B0901D00909E3E7B1
:10023800100010BC704701B5002000F00BF802BD9B
:100248000029F8D003B5FFF7C1FF0EBC4243891A55
:100258001847C0467047C0461C2101231B0498421A
:1002680001D3000C10391B0A984201D3000A08393F
:100278001B09984201D30009043902A2105C4018F6
:100288007047C0460403020201010101000000009A
:1002980000000000002B11D1002A0FD1002900D145
:1002A800002802D00021C943080007B4024802A16F
:1002B8004018029003BDC0469DFFFFFF03B4684687
:1002C80001B5029800F04CF8019B9E4602B00CBCA8
:1002D8007047C046D0400B00D1409C46203AD340DE
:1002E80018435242634693401843704791400300B5
:1002F80090409C46203A9340194352426346D3406B
:100308001943704710B5002903D1FFF7A5FF203026
:1003180002E00800FFF7A0FF10BDC046F7B5040CC7
:100328000D0091B20F0061438C460600019383B221
:10033800100C5F43444358433B0C60441B189942DC
:1003480002D9802149026418019955437143180C58
:1003580004191B04BFB24919D819091903B0F0BD13
:10036800F0B506000F0015001C0085B08B4263D85D
:1003780001D1824260D821002800FFF7C3FF39006D
:1003880000903000FFF7BEFF009B21001B1A1A00E7
:1003980028000393FFF7AAFF00900191B94245D8BE
:1003A80001D1B04242D8009B019C01200021039A50
:1003B800F61AA741FFF79AFF04000D00039B002BD4
:1003C8002BD0019B009ADB0750081843019B590862
:1003D800039B9C46B9422CD801D1B04229D832009F
:1003E8003B00121A8B41012692185B410027B61870
:1003F8005F4101235B429C446346002BEAD13000F5
:100408003900039AFFF766FF039AA4197D41060095
:100418000F00FFF76BFF241A8D410A9B002B01D0B8
:100428001E605F602000290005B0F0BD0024002593
:10043800C4E7B6197F41DCE700240025EDE700009A
:1004480010B50249024801F00AFE10BD582A0010F2
:10045800612A001010B5024B1B68984710BDC046B2
:1004680000000020014B18607047C04600000020C3
:1004780013B50B000021034C02000091200000F08E
:1004880003F813BD5D040010F0B51C00002799B0F7
:10049800049005910892089B1878002801D138002B
:1004A80027E3089B01330793252807D00599049B68
:1004B8009847002800DA1CE30137E3E112AD18225F
:1004C8000021280001F076FE089B5B78252B14D1CB
:1004D800089AEB720232079212AB5A7AD10700D40B
:1004E8007FE102CC0391002900DB7FE10421187A27
:1004F80001431972039B5B4277E100220126150034
:10050800100094460392079B1B782B2B6FD068D85A
:10051800202B71D0232B71D0002A05D012AE327A4D
:10052800110040220A433272002D04D0202212AD5D
:100538002E7A32432A72002804D0102212A8057A93
:100548002A430272039A002A04D0082212A9087AC0
:1005580002430A726246002A04D0042212A9087AC9
:1005680002430A72442112A8027A1140442902D196
:1005780040218A4302728022017A52420A4302725F
:1005880000210A25079A2A2B40D1417A293B0B439F
:10059800013243721578022629002E394B425941FF
:1005A80012A8437A4900B3430B4343722E2D45D119
:1005B80053782A2B3DD00023013208361178551C78
:1005C80008003038092863D912A916930D7AA807AC
:1005D800184302239D432B00C00F400003430B72B6
:1005E8002CE02D2B0CD0302B96D1320000E0039656
:1005F800079B0133079386E73000F9E73500F7E7F3
:10060800B446F5E732006943303959181378561C57
:10061800180030380928F5D9079B9342BAD002252B
:1006280012AB187A1591C90F4900A84301431972F2
:10063800B0E70423417A02320B434372117812ABBC
:100648006C2945D029D8682930D06A294CD04C2942
:1006580054D01178531C12AA0793D172537A78296F
:1006680000D9B9E06D2950D8692900D9B4E05729D3
:1006780066D8412903D04539022900D9ACE00723BF
:1006880012A98A7A9A43033B13438B72012373E0BE
:100698007343303B2A005B1890E7742929D07A29E4
:1006A800D7D17821587A884348390DE05078782195
:1006B800682806D1587A8843703901435972023242
:1006C800C7E7587A88431021014359720132C0E7BD
:1006D800507878216C2803D1587A88435839ECE748
:1006E800587A88431821EFE77821587A8843503997
:1006F800EAE77821587A88434039E5E71889A54917
:100708000840A54901431981E0E7012005006E3939
:10071800C9B28D402900A14D294238D1242529424A
:1007280051D1014258D00721907A884304390143B6
:10073800917278221340403B5A425341DBB21BE08E
:1007480001200D000600583DEDB2AE403500E2260E
:100758003602354293D1924E354222D18421890204
:100768000D4239D00725917AA94301439172782126
:100778000B40402B11D0002312AA117A8807C00F12
:10078800034302205B00814319431172A4E6072149
:10079800957A8D4305392943E8E7137A03431372A1
:1007A800E9E70725967AAE43053D354395727825E6
:1007B8002B40402B02D1157A284310726329DAD1D5
:1007C8005A1E9341BAE70721907A884304390143B6
:1007D800917278221340F3E7012312AA117A0B438E
:1007E800DDE7197A7F290FD9DB68039312AB51072C
:1007F8000CD504CC0692002A0CDA02215A7A8A43D4
:100808005A7201235B4204E0012374E69207F8D58B
:100818001B690693002512A98B7A4A7A5B07520650
:100828005B0F120FCD600D61012B30D1D01E042853
:1008380004D8FFF7B5FC0E45450E0E002368D817FF
:1008480012934860012A09D15BB21293DB174B60FF
:1008580006E008CC1293DB174B6002E0022A14D0A2
:10086800043412A90B7A03201D000540034245D029
:10087800079B089A0599049801F053FC002800DAB0
:1008880037E13F18079B089305E61BB2DDE7022B0B
:1008980025D1D01E042804D8FFF782FC0D121219A6
:1008A800190008CC012A16D012934D609BB2022A77
:1008B800D7D11293D5E708CC129300231393D0E72E
:1008C800072307349C4303CC12901391C9E708CC43
:1008D80012930023C0E7DBB212934D60C1E7042BEB
:1008E80008D1073403339C432068616808341290A8
:1008F8001391B6E7032BB4D108CCDAE7C87A782885
:10090800C0D862282BD8252800D1CFE55828B9D1DE
:10091800129813991E230AAA9B18009314AA0CABC9
:1009280001F0B2FB069B0600002B0DDB1E234020C6
:100938000AAA9B1812AA117A9B1B81431172069965
:10094800994201D9CB1A1593002E9BD01E230AAACF
:100958009B18981B0693002D32D0013030E0633885
:1009680015288FD8FFF726FC5E0068008EFF8EFFE3
:100978008EFF8EFF68008EFF8EFF8EFF8EFFA00019
:100988007A007C008EFF8EFF1E008EFF7A008EFF9D
:100998008EFF7A00FD87FFFF0240000082040000FE
:1009A80001080000069B129E002B37DB190030005F
:1009B80001F0EDFB331800250693002E00D161E706
:1009C80012AB9B7A1022190011400B91134200D1EF
:1009D80085E00230159A0A9280185B0601D5169BAD
:1009E800C018039B002B00DC94E01B1A039312AB86
:1009F8001B7A5A07D10F0891002A00DA8AE05B06B1
:100A080000D478E0002D07D028000599049B98476A
:100A180000286EDB089D013730236DE0300001F0BF
:100A2800AEFBC7E70923129A0CAE32700AAA9B18CC
:100A3800002501200693C3E72B251A0702D4DB06FD
:100A4800DB0F5D01129A139B002B00DB60E700218E
:100A5800504299412D251290139159E7002557E7E7
:100A6800129812AD002834D01E230AAA9B180093AE
:100A780014AA0CAB002101F007FBEF236A890600DA
:100A88001A40484B13436B810025069BAB4200DBA1
:100A98004CE7A84200D1F5E61E230AAA9B18181AAB
:100AA8001E239B1806938BE7129B072A00D9E9E6B9
:100AB8001000FFF775FB0C04060C08080C0C1F70DF
:100AC800E0E61F80DEE6FA171F605A60DAE61F606C
:100AD800D8E6354B0500354E0520069370E71A0712
:100AE800D20F801876E705990998049B9847002843
:100AF80005DA19B0F0BD20230993039B0893089BDE
:100B08001A00013A0892002BEDDC039AD719FF1A54
:100B1800089B0393002D06D028000599049B98474D
:100B28000028E6DB013712AB9B7ADA0601D41B07F3
:100B380006D530200599049B98470028D9DB013752
:100B48000B9B002B07D012ABD87A0599049B9847CA
:100B58000028CEDB01373D0006E030200599049BD4
:100B680098470028C5DB01350A9BDB195B1B002B66
:100B7800F3DC3200069B0599049801F0D2FA0028AC
:100B8800B7DB47193D00039B5B19DB1B002B00DC1F
:100B980078E620200599049B98470028A9DB0137AF
:100BA800F1E7C04610780000772A0010722A00107A
:100BB800014910220A60704710ED00E0BFF34F8F23
:100BC80030BF62B6BFF36F8F7047C04643B20006AE
:100BD80005D41F221A4001239340014A136070472D
:100BE80000E100E030B5FF2503220B00290040B2E8
:100BF8000240D20091405B012B40C943934000283A
:100C08000ADBC0240A4A800880008018A400025920
:100C18000A401343035130BD0F2210400838054ADB
:100C2800800880008018C26911401943C161F2E749
:100C380000E100E000ED00E030BFFDE7FF22084BD7
:100C480010B59343074A9360BFF34F8FBFF36F8F7D
:100C580000F0D4FD01F0AAF800F0F2F800F00EFE62
:100C68000001001000ED00E0084A0949936809688E
:100C78009866D966802307495B05486803434B603B
:100C880062B6BFF36F8F9368D86E70475801002023
:100C98003C2A001000ED00E013498A68134810440C
:100CA800EFF3098CF0C043464C4655465E4667460E
:100CB800F8C072B60E4F0F4E8A698A603E60906E19
:100CC80000239366002800D162B6084C1019103032
:100CD800F8C89846A146AA46B346BC462438F0C888
:100CE8008CF309887047000058010020300000008C
:100CF80004ED00E00000000804207146014202D023
:100D0800EFF3098001D1EFF308808169023909788E
:100D18000229FFD001B501F01FFA01BD10B5203A34
:100D28001360029B01245360039B06499360049B54
:100D3800A143D36080235B04D361002391610265E2
:100D4800836610BD7D200010064B9860101C81F34F
:100D58000988002162B6BFF36F8F0022002301F0DB
:100D680089F9C0465801002001B5EFF3058005490F
:100D7800401AC0000449014409C9984709BC9E4665
:100D8800024908471000000090280010990D001033
:100D9800044B99689869884202D00349034A0A605B
:100DA800704700005801002004ED00E0000000102A
:100DB80070B51B4B0C005B6888B0DB05DB0D62B6B9
:100DC800BFF36F8F0025160E2900FF2E09D1F33EC1
:100DD8001640082E05D001000135120701D5210063
:100DE80000250024032B06D18B69023B1A880D4B82
:100DF8009A4200D10C682022684601F0D2F9079B7C
:100E0800002D0AD0DA0502D1074A13430793694631
:100E1800200001F09DF908B070BD5B0A5B02F5E7A0
:100E280000ED00E002DF0000FF010000EFF30880A2
:100E3800EFF3098101B57246FFF7BAFF01BDC0465D
:100E4800F0B5C02400220326FF25A40010002F00BF
:100E58003040C0008740054993089B005B1819592A
:100E68000132B94319511A2AF0D1F0BD00E100E06E
:100E780072B607480749401880F30988EFF31480D1
:100E88000221084380F31488BFF36F8FFFF7D6FE63
:100E9800980100200008000010B50A4B9B688342A7
:100EA8000DD1EFF30583002B09D08022064B5205A4
:100EB80059680A435A605A6A04490A405A6200F05B
:100EC80019FF10BD5801002000ED00E0FF7FFFFF73
:100ED800014B18607047C046040000200E4B0F4AB3
:100EE80070B51A600E4D0F4B0F4C2B601900A2689D
:100EF8009143FBD100F04CFA0C4B2B60A368DB014B
:100F08008033FBD1EFF3108372B6002B02D162B6A7
:100F1800BFF36F8F002070BD00E00040BFCDFFFF22
:100F280000F00040FE3F3C0000C00040FFFFFF0112
:100F380010B5084801F0B5FB002808D0064C200081
:100F4800FFF7C6FF2000FFF78DFA002010BD132021
:100F58004042FBE760280010650F001070B50400E0
:100F6800074D0A2804D1AB680D2128005B68984713
:100F7800AB6828005B68E1B29847200070BDC046A6
:100F880060280010F7B50600002403690193E30800
:100F9800144A08339B009B58072222409200D340F2
:100FA8000F22134203D101341E2CF0D1F7BD0F21BB
:100FB800200000F02FFB019B59680029F3D001277E
:100FC800A7400D680029EED08B681A003A403B42D2
:100FD80002D030004B6898472B1E00D02B682900A0
:100FE8001D00EFE700410140436803495A68936BCD
:100FF8000B4093637047C0463FF8FFFF10B5032BC3
:1010080023D8012A02D0032A1FD1013A02291CD869
:101018000468013A0E485B01D200415C1A43200083
:1010280000232C30994205D0023301391A434B4230
:1010380059418B001A436E23E16A4A401A408023C3
:101048005B01034300201A6010BD16204042FBE7F5
:10105800862A0010F0B5456885B02B68040006693B
:101068000021A86803AA6F68019301F034FA0028E8
:1010780023DB039B00221979186801F03FFA002846
:101088001BDB3168019800F02FFB002817D00D4BAF
:10109800306073600122032300216068FFF7AEFF10
:1010A8003A00C0232C329B011343002610221A60F9
:1010B8003E6020006B699847300005B0F0BD1620EF
:1010C8004042FAE70001030030B50A4B0A4A986823
:1010D80019680A4D9C68C90301D4A04204D211685A
:1010E8002868091811601B682B681068C018001B55
:1010F80030BDC04610E000E0200100202C01002097
:101108000020094A136A1B021B0A1362074B084A8C
:101118001A60084B1860084B5A60072298601968D3
:101128000A431A607047C04600ED00E02C01002019
:10113800D33000002001002010E000E070B5FFF778
:10114800C3FF0B4B0B4A186811680B4C4018106012
:10115800002225681A600949401BFFF735F8074B3C
:1011680043435B19236000F005FFFFF711FE70BDD4
:10117800200100202801002024010020D430000094
:10118800F0B5324D324F85B0002954D0431C08D1F8
:1011980001222B6893432B60FF231B063B6005B09D
:1011A800F0BD3B6801930026012804DD294B1E0091
:1011B800984200DC461EEFF3108372B60393FFF7E4
:1011C80083FF0022AB680293234B1C68234B04194E
:1011D8001A60234B1B680093E01A904231DB214BC5
:1011E800214A5E43801919008018FEF7EDFF1D4B58
:1011F8005843009B1B1B18188023DB00984223D9F7
:101208001A4B984220D8002338600138A9686860D2
:10121800AB60029B02985B1A1A19884202D2019AA3
:101228009B181A190C4B1A60039B002BB7D162B696
:10123800BFF36F8FB3E73B680193431CB3D10548F5
:10124800B8E78020C000DEE71800DCE710E000E027
:101258002C0100203D05000028010020200100206D
:1012680024010020D4300000D330000084C6FF00E1
:1012780010B5EFF3108472B6FFF726FF074B084A44
:101288001B6812689B1A1818002C02D162B6BFF3AB
:101298006F8F0449FEF798FF10BDC0462801002053
:1012A80024010020D4300000F0B585B001920A9ADC
:1012B80005000F0000209A4263D80C241A0E1B0266
:1012C800039202930A9A030003990298FEF7E2FF39
:1012D8006C432D4B0600E4186368834200D26060BB
:1012E8002B1FDBB20093C023009A9B012343012AE2
:1012F8001BD8012F19D103221A60A3683B42FCD0E6
:10130800019A236852015A40E0231A4080235B0166
:1013180023431A60032122687A400A401A60012395
:10132800BB40A2681342FCD01AE0802212011A6066
:10133800164BAA00D158002905D05869FEF744FF7A
:1013480001300138FDD1019A236852015A40E02347
:101358001A4080235B0123431A60009A012AD9D9D5
:10136800802380229B01234312011A600298666041
:10137800320000230399FEF78DFF044CAD00605145
:10138800012005B0F0BDC0460080004030010020BB
:1013980037B50C2000F0DAF800F0E0F800280AD0A1
:1013A80000232B4A2B489900013350500A2BFAD1BD
:1013B800294B536237BD294DA86700F0B3F80122C5
:1013C800274B1A606B6C012BFCD10322254B1A604A
:1013D800AC6B012CFCD10225210000950623224A82
:1013E800224800F053F8210000950523204A21489F
:1013F80000F04CF8204B2900204D009300220420D7
:10140800FFF752FF2B002100002200950520FFF76F
:101418004BFF00220F4C1100230000940720FFF718
:1014280043FF00222300110000940820FFF73CFF2F
:101438000022094B1100009309202300FFF734FF15
:1014480000222B00110000950620FFF72DFFB1E7C1
:1014580030010020006CDC021BB700000080004057
:101468003CB0004030B00040002F68590080024076
:1014780000389C1C00C00240001BB700405973078D
:10148800014B8000C058704730010020F8B50400B7
:101498000C2017001E000D00FEF796FE1C49414364
:1014A8003800FEF791FE069A3304120313432268AC
:1014B800002A0CDA3F2122680A40AA4207D1A26812
:1014C8001205120D824202D1E268002B1BD0114A8C
:1014D800944219D0802252010F49104E0A601049D7
:1014E8000A601700B1688F43FBD1C022211D920109
:1014F8000A4321212560A060116021680029FCDAD7
:10150800E36008231360F8BD80229201E4E7C04637
:1015180040420F0000C0024000E0004000C0004010
:1015280000F00040AA22064B12011A602F2205493A
:10153800DA60054A11605A68002AFCDA7047C0462A
:101548000040024000B0FA00006002408023024AD6
:101558009B000343D362704700800540024B186824
:101568008007C00F7047C04600C00640084B820085
:10157800D218402310B51468C0006340C02423402B
:101588008024640122431360024BC018416010BDDF
:1015980004C0014000400140074B8000C0180368A8
:1015A800C90092000A435A400C231A4080235B0169
:1015B80003431A607047C04604C00140054B8000D1
:1015C800C01802228023002900D1C0239B010343B5
:1015D8001A60704704C00140054B8000C0180368BA
:1015E80059400123194080235B0103431960704768
:1015F80004C00140064B8000C01803680901594027
:101608003023194080235B01034319607047C046AB
:1016180004C001400722C308104080008140024AEC
:101628003C339B009950704700400140F8B5D023E7
:101638001B061C68050063425C412F2364429C43DF
:101648000A4B0F00E4181600FFF7E4FF07232B40AE
:10165800ED089B00AD009F4064198023002E00D147
:10166800C0239B0123431F60F8BDC04630410140A1
:10167800054B8000C01840228023002900D1C023D8
:101688009B0103431A60704704C0014070B506000F
:1016980006200C00FFF7F4FE2100C000FEF794FDC1
:1016A8000124C50907D00E4B9D4215D87F23184049
:1016B80000192C0045088023002274629B01B56242
:1016C8002C3633431A600620FFF7DAFEA1014919C8
:1016D8008000FEF779FD70BD0025024CEBE7C0469F
:1016E800FEFF0000FFFF000070B5040006200D009B
:1016F800FFF7C6FE00282ED0194B9C422CD0802321
:10170800DB03184A18491360184A136018008A68DE
:101718009043FBD1164B174AE31859424B4180219D
:101728005B004900995220002900FFF7AFFF6023B2
:10173800E26A210053406E22134080222C3152016C
:101748000A4313600C4B1022236380239B010B4335
:101758001A600323A36470BD80231B04D1E7C0462D
:101768000080034000E0004000C0004000F000405E
:101778000080FCBF8C01002001030000F7B50127A1
:10178800104E830001309C5983000193019BF3584C
:10179800A34200D8F7BD6568236828009847002D44
:1017A8000DD0002807D0C2178018EB685040FF28DA
:1017B80000DDFF201870EA6853783B435370083403
:1017C800E4E7C046402A001010B50124094B032065
:1017D8001C70FFF7D3FF00F037FC0420FFF7CEFFA3
:1017E80000F0CEF8FEF72CFE034A137BA3431373D5
:1017F80010BDC046900100209800002010B5034A93
:1018080003480021121A00F076FF10BD9401002051
:101818002800002070B57026012504004643010207
:10182800114880220918002086B004950E350395CA
:10183800093565430D4B0590029001900C48F61848
:101848002D180C4B30000095520000F06FF8042260
:10185800737B2C75934373730134074BE402E418CC
:10186800EE606C6006B070BD98090020280000206A
:10187800580100200F27001098010020F0B5002023
:10188800A3B0FFF77BFF214B83F308882049214B46
:101898000A6A00251A40E0231B0413430B6200F078
:1018A8006DFCFFF785F902221B4E06ABFF329A81C9
:1018B800B3601F9500F0F4FE0120FFF75FFF0220E0
:1018C800FFF75CFF00F002FA144C154BB46180225C
:1018D80005930123134E14490493D20033002000CA
:1018E800039502950195009500F020F80422070061
:1018F800637B20009343637300F03BFF2800FFF7EE
:1019080089FF320039002000FFF71EFA98090020ED
:1019180000ED00E0FFFF00FF5801002098000020C4
:10192800B12A0010D1170010980A00207FB50400D2
:101938005830A065E0650C98002620730420607379
:101948000B980732A073072082438D180A9AA66065
:10195800E673A661E6610292099A20000192089A4C
:1019680000922A00FFF7DAF9044B66659B68B342D8
:1019780000D05B6E2800636604B070BD580100207B
:1019880070B5204C86B026001F4DAC4208D300F03D
:1019980077F93400AC4219D300F082F906B070BD73
:1019A800E36A0593236A0493E3690393A3690293A3
:1019B8006369019323690093E368A26861682068FA
:1019C800FFF7B4FF23685C653034DDE7636A5A1CAF
:1019D8000FD0D843C01718400A220023C117FEF7BA
:1019E8009DFC26680B000200014304D1300000F082
:1019F8002DF93034CEE730000449183000F044FAAD
:101A0800F7E7C0466029001060290010432700103E
:101A180070B5074D2C68002C08D0FFF729FC054B42
:101A28002418002128681C6100F0D7FE70BDC0464C
:101A3800840100205801002070B50E4D0E4BEC6952
:101A48009C4201D0002C00D1EC68AB68002808D17A
:101A58005A7BD20605D1A269002A02D1DA897F2AE7
:101A680005D89C4202D02000FFF7D2FF2300AB61CB
:101A780070BDC04658010020740100200D2270B5C9
:101A880082560400437B002A04DA7F221340437302
:101A980000F040FE8023627B5B421343134A63736A
:101AA800D3691348834200D10023116A002B04D163
:101AB800206061600C6014620CE00E250E266557EC
:101AC8009E57B5420DD0AE420BDD59682360616068
:101AD8000C605C609068001B43425841FFF7ACFF04
:101AE80070BD9942E4D01B68E0E7C0465801002069
:101AF800740100200D2370B5C356417B002B26DBF3
:101B0800CB0624D18369002B21D1802252420A437B
:101B18004273114A114CD169A14200D00B00116ADD
:101B2800002B04D104604160086010620CE00E25AF
:101B38000E2645579E57B5420AD0AE4208DD5A6870
:101B480003604260106058600020FFF775FF70BDA9
:101B58008B42E7D01B68E3E758010020740100209E
:101B680010B5EFF3108472B60A234343002802DD50
:101B7800022B00DA02230020074A1061074803609D
:101B8800074B90681960FFF743FF002C02D162B63B
:101B9800BFF36F8F10BDC04658010020840100209C
:101BA8008001002070B5EFF3108572B6174B184A04
:101BB8009C6811688C4208D12000FFF729FF002D8E
:101BC80002D162B6BFF36F8F70BD00211160114A58
:101BD80012688A4218D0E2897F2A15D8627BD20619
:101BE80012D10E210C4A6156126891420CDB0B4A45
:101BF800944209D01A69824203DC2000FFF73EFFB5
:101C0800DAE7121A1A61DAE70022FBE75801002026
:101C18007C01002084010020800100202800002091
:101C280010B500290AD1EFF30580002807D1064B2B
:101C38009A689B699A4202D0FFF716F810BD62B6FF
:101C4800BFF36F8FFAE7C0465801002010B5EFF3D5
:101C5800108472B60422437B134205D1002C02D1B2
:101C680062B6BFF36F8F10BD93434373FFF742FF14
:101C780021000248FFF7D4FFF5E7C0469101002094
:101C8800EFF3108172B6054B9A68D37B013BD3738F
:101C9800002902D162B6BFF36F8F70475801002048
:101CA80010B5EFF3108472B6074B00209A68D37B07
:101CB8000133D373FFF7C0FE002C02D162B6BFF325
:101CC8006F8F00F070FD10BD58010020002110B585
:101CD800034B044A0800DA611A62FFF741FF10BD9E
:101CE8005801002074010020014B98687047C046D5
:101CF8005801002070B50400EFF3108672B6037B1C
:101D0800DB0708D5002E02D162B6BFF36F8F04201F
:101D180062B602DF70BD0823427B1A4205D0002E4E
:101D2800F8D162B6BFF36F8FF4E720211000884323
:101D38000100194348B2002820DB6173A368002B17
:101D480002D0200000F0EEFC2000183000F032FD38
:101D58002300A56D58339D4201D0002D16D10120D6
:101D6800FFF76AFE104B9B68A342D8D1EFF30583B7
:101D7800002BD4D13000FEF777FFD0E75F210A406F
:101D880013432000637300F0C5FCD7E7280000F078
:101D9800C9FC2800183000F00DFD00232800EB6670
:101DA800FFF7A8FED4E7C0465801002010B5064842
:101DB800064A0749121A00F0A2FC064A06490748D3
:101DC80000F09DFC10BDC046000000202600002049
:101DD800F82A001000000000F82A00100000002077
:101DE800002010B5034B1B68834201D1FFF740FA6E
:101DF80010BDC0468801002070B5124B1E689E4277
:101E08000AD1FFF7EDFF1048104B1B69002B02D0D9
:101E1800984200DD180070BDFFF7E2FF002EF2D0F7
:101E2800326973690400C517121BAB41002BEADC49
:101E380003D1802109068A42E5D2D843C017104051
:101E4800E2E7C04618000020FFFFFF7F580100208E
:101E580030B500280ED00B4B5B6898420AD0016859
:101E6800002907D00A694B690469456912196B4151
:101E78000A614B610368426813605A60002303607B
:101E8800436030BD18000020F7B5040016001F009D
:101E9800531C01D17B1C5DD0A160EFF3108372B697
:101EA8000193002F23DA7B1C01D1B31C1FD82E4BC2
:101EB8001868596802225242D317121A8B41921B92
:101EC800BB41002B04DC01D1002A01D101220023EF
:101ED800264F226163613D68BD4200D100257E68BE
:101EE800002D0FD12760666034607C601CE0FFF72E
:101EF80077FF0122002392197B410600C717921928
:101F08007B41E5E72869696922696369994202DCCE
:101F180021D190421FD9801A99416B682861696163
:101F2800636025601C606C603B68BB420CD09C42BF
:101F38000AD1FFF761FF002803D00D4B1B698342CC
:101F480002D00021FFF71CF9019B002B02D162B6D9
:101F5800BFF36F8FF7BD121A8B4122616361B542DF
:101F6800C0D02D68BCE7C04608010020180000203A
:101F780058010020F0B587B00400FFF713FEEFF317
:101F8800108372B601932D4B2D4F1C609C46396807
:101F98007A682C4B029103921D689D4211D0002D46
:101FA8000FD06A692E69E3179A4202DC21D1A64252
:101FB8001FD919002A696B692000121A8B412A61FE
:101FC8006B61029803992200E31712184B41002411
:101FD8003A607B6063461C60FFF70EFF2100FFF745
:101FE800CFF8019BA34202D162B6BFF36F8F07B04F
:101FF800F0BDF31704960593049B059C029803997A
:10200800C0186141002300240D4A2B616C611060E7
:1020180051602800FFF71CFF019B002B02D162B61C
:10202800BFF36F8F2800AB689847EFF3108372B641
:102038000193024B1C68A41BA5E7C0468801002039
:10204800080100201800002010B5024800F007F829
:1020580010BDC046B62A00107047002070470FB464
:1020680007B504A901C90191FEF702FA03B008BC3B
:1020780004B0184710B50400080011001A00A04762
:10208800FFF732FEFEF708FFF0B585B00190039325
:10209800D37815001A00413A0F00082402926F2BDA
:1020A8000AD004D82419582B06D0063C04E008228C
:1020B80010249343702BF8D10A9E22000023390084
:1020C8000198FEF7E7F813008C46D2B2092B1AD80C
:1020D8003032D3B2013E33700023BB4202D1019BA0
:1020E8009C4202D8039B9E420AD82B789B0604D5B3
:1020F800082C10D1AB782343AB70300005B0F0BD8D
:1021080067460190D9E7130002995733DBB21929C2
:10211800E0D83732DDE7102CEFD1AB781C43AC7038
:10212800EBE7F7B5070015001E0014000191A64261
:1021380006D8002E01D0601B08E02378002BFAD0C7
:1021480020780199B84701340028F0DAFEBD7047BD
:1021580010B500F0BAFA10BD10B50100006800F023
:10216800B4FA10BD10B500210120FFF7F1FF10BD32
:1021780010B5FEF761FDFEF70BFE10BD70470300BA
:1021880000201A5C002A00D170470130F9E70300EB
:1021980000201A5C002A01D0884200D17047013023
:1021A800F7E7002310B59A4200D110BDCC5CC454A7
:1021B8000133F8E70300C9B28218934200D170478F
:1021C80019700133F9E7012040427047D0231B06FC
:1021D8005B6800200B607047D0231B0618694240DB
:1021E80011400020D9617047D0231B060020596197
:1021F8007047D0231B06002099617047D0231B0627
:102208000020D961704710B503695868002821D0AB
:1022180088421BD108689C685860A14200D1986028
:1022280000200860824206D05A680A609A6859609D
:10223800002A00D19960002010E0814206D1086888
:10224800206098688142EBD19C60E9E7040000684F
:102258000028F2D1002AE7D11620404210BD10B55F
:1022680043685B689847002010BDF7B50D00076903
:1022780016000F21002228001C00FFF7D7F90122C1
:102288001300AB40019380239B039E4205D1FB685A
:10229800019A93430020FB60FEBD8023610EDB049E
:1022A80023401140F6010DD58900002B01D00823E9
:1022B800194301222800FFF7B9F9FB68019A1A436C
:1022C8001300E7E7002BF4D00223F1E770B50D0007
:1022D8001400930723D405212800FFF747F9A30327
:1022E8000DD50123D022AB4012065362210302D53B
:1022F8005361002070BD6403FBD59361F9E7E303E4
:10230800F7D501231900D022A9401206916262096B
:10231800210928001A401940FFF73EF9E9E786200D
:102328004042E7E710B5002203210D20FEF75AFCD2
:102338000D20FEF74BFC10BD10B5436810225B68FA
:102348009C6920001040144202D11B680B7010BD1C
:1023580001204042FBE7202243685B6898691042ED
:10236800FCD11960704743685B681B681805C00F8B
:102378005A0501D5082210439A0501D502221043B7
:10238800DB0501D504231843704730B52025436881
:1023980000205B689C692C4202D1141A002C00DCD6
:1023A80030BD0C5C01301C60F4E730B51025436883
:1023B80000205B689C692C4202D1141A002C00DCB6
:1023C80030BD1C680C540130F4E7202243685B6878
:1023D800996B0A4307219A635A6B8A435A63704779
:1023E800202143685A68936B8B4393637047436813
:1023F8005B68186C8006C00F7047102243685B68E2
:10240800996B0A4338219A635A6B8A435A63704717
:10241800102143685A68936B8B43936370474368F2
:102428005B6898690006C00F704743685B68186C62
:10243800C006C00F704743685A68F823916BDB00E9
:102448000B439363704710B50400FFF7EEFF0300DA
:102458000120002B04D12000FFF7C9FF431E98413B
:1024680010BD0120704703699960DA60704710B5A4
:1024780002699368002B01D0D168984710BD03000A
:1024880010B5080008221969FFF78BFE002010BD5F
:1024980010B5002203211420FEF7A4FB1420FEF738
:1024A80095FB10BD70B5436806000C000569096806
:1024B8001868FFF7EBF8002802D11620404270BDDB
:1024C800A379627921797068FEF798FD0028F4D124
:1024D80006CC06C5F3E730B50368136005790468D0
:1024E800ED006419A34202D30220404230BD5C795A
:1024F8008C4201D00833F0E70020F7E7F8B5040074
:1025080001268D004519AC4201D10020F8BD207884
:10251800271DC006C00E00F0B8F821882078C9052C
:10252800C006090FC00EFFF721F861782078CA09A4
:10253800C0064906C90FC00EFFF72EF8617820784B
:10254800C906C006090FC00EFFF754F86178207855
:102558004909C0063140C00EFFF73EF8A17820783F
:102568008907C006C90FC00EFFF728F8A1782078A0
:10257800C907C006C90FC00EFFF77AF83C00C2E7CA
:102588000020704783680079022809D004280BD0FE
:1025980001280CD1C9180B78DBB2002013607047F2
:1025A800C9180B889BB2F8E7C9180B68F5E716201D
:1025B8004042F4E70300F0B585B05F6801923E79C8
:1025C8000800F100FDF73CFE03AA04000D0081B2EB
:1025D8003800FFF7D7FF002817D101220399EDB281
:1025E800AA400B00944693437D79019A954201D005
:1025F80063460B43BA68022E09D0042E0CD0012E74
:102608000ED1A4B2DBB2A418237005B0F0BDA4B2F9
:102618009BB2A4182380F8E7A4B2A4182360F4E7B7
:1026280016204042F1E710B50122FFF7C3FF10BDA5
:1026380010B50022FFF7BEFF10BD70B504000D00F5
:10264800FFF7F1FF002803D129002000FFF7F0FF72
:1026580070BD030073B55E68080031791400C900C5
:10266800FDF7EEFD01AA0D0081B23000FFF78AFFE9
:10267800002809D1019BEDB2EB4001229A437379FE
:1026880059424B415340237076BD0123D0228340E9
:1026980010B51206936205219361FEF767FF10BD1E
:1026A8007047002809D00123C268002051781942D8
:1026B80002D010784242504118407047EFF310831F
:1026C80072B6FEE710B5FFF7F9FFF8B505000E0082
:1026D800EFF3108772B6FFF707FB310004002800FC
:1026E800FFF7F0FF002F02D162B6BFF36F8F200013
:1026F800FEF7D2FBF8BD10B5FFF75CFD10BD10B5B5
:10270800FFF74FFD10BD10B5EFF3108372B6FEF75B
:1027180055FAF9E70368426813605A6000230360BA
:102728004360704710B50400FFF7F4FF0222637B93
:10273800934363730023A36010BD183870B5040079
:10274800EFF3108572B62823427B1A420BD18368B7
:10275800002B01D0FFF7E6FF1422637B2000934390
:102768006373FFF7C7F9002D02D162B6BFF36F8F0D
:1027780070BD10B5EFF3108472B6FFF7BBF9002CEB
:1027880002D162B6BFF36F8F10BD10B5002805D116
:10279800EFF30580002802D1FEF766FA10BD62B695
:1027A800BFF36F8FFAE710B5EFF3108072B6FFF73B
:1027B800ECFF10BD10B5EFF3108472B60368002B60
:1027C80008D0FFF745FB0020002C02D162B6BFF30A
:1027D8006F8F10BD16204042F6E770B504000D005B
:1027E800EFF3108672B6FFF707FB012806DDA0425B
:1027F80004DB00DD20002900FEF7C2FC002E02D118
:0828080062B6BFF36F8F70BDD3
:0828100058DBFF7F010000000E
:10281800E50E00100000000089250010482800106F
:102828005D10001060280010390F00100000000033
:10283800091100100000000067220010782800101D
:10284800972A0010202A00102C2A001024000020AB
:10285800000000006E290010892A0010A429001029
:10286800D42900102200002008000020662900104A
:10287800782A0010782900108029001020000020F4
:0828880010010020602900107E
:10289000000000006D210010000000006D210010FC
:1028A000000000006D210010000000006D210010EC
:1028B000000000006D210010000000006D210010DC
:1028C000000000006D210010000000006D210010CC
:1028D000000000006D210010000000006D210010BC
:1028E000000000006D210010000000006D210010AC
:1028F000000000006D210010782800108D0F0010DE
:10290000000000006D210010000000006D2100108B
:10291000000000006D210010000000006D2100107B
:10292000000000006D210010000000006D2100106B
:102930006028001077240010000000006D210010B6
:10294000000000006D210010000000006D2100104B
:10295000000000006D210010000000006D2100103B
:1029600000800080FF7F010000800080FF7F0080EA
:0629700000800200FF7F61
:02297600FFFF61
:10297800FFFFFF3F2D230010D5220010D5210010A6
:10298800E1210010F1210010FB21001005220010A8
:10299800732200100F2200100000000000400340C6
:1029A80000400340BC290010482800101600000011
:1029B80099240010C429001001000000CC2900103F
:1029C800020000004C0200004D02010041230010EB
:1029D8005F2300106F230010AD240010872400101F
:1029E80093230010B3230010D3230010E923001011
:1029F800F7230010032400101924001027240010C6
:102A0800332400103F240010F10F00104F24001051
:102A18006B2400106F24001000C000400400000068
:102A280000C000405B2600102F2600103926001039
:102A380043260010F5FFFFFF182800101828001083
:102A48003828001040280010482800104828001096
:102A58007270695F7069636F0048656C6C6F2057AE
:102A68006F726C64212025730A00286E696C290036
:102A78006770696F403430303134303030000002D4
:102A88000175617274403430303334303030007244
:102A9800657365742D636F6E74726F6C6C657240CC
:102AA8003430303063303030006D61696E002A2A6E
:102AB8002A20426F6F74696E67205A657068797250
:102AC800204F53206275696C64207A65706879724A
:102AD8002D76332E322E302D313739362D676266FA
:102AE80030363132636165336664202A2A2A0A0047
:102AF80063200010CF21001000C201000000000078
:102B0800000000000000000018000020180000204D
:062B1800000000000000B7
:042B1E0015E015E0C9
:0400000510000E7960
:00000001FF
